:100000000C942A000C9434000C9434000C943400AA
:100010000C9434000C9434000C9434000C94340090
:100020000C9434000C9434000C9434000C94340080
:100030000C9434000C9434000C9434000C94340070
:100040000C9434000C9434000C9434000C94340060
:100050000C94340011241FBECFE5D8E0DEBFCDBF25
:100060000E948F000C9470010C9400000F931F935A
:10007000CF93DF9397B3906B97BB97B39F7B97BB5F
:1000800098B3906198BB82FB992790F9906C9EB9C8
:10009000062F017010E0000F111F02951295107FBE
:1000A0001027007F10274170C42F90E0D92FCC0F6C
:1000B000DD1FCC0FDD1FCC0FDD1FA22FA170B0E024
:1000C000AA0FBB1FAA0FBB1F81FBEE27E0F9F0E0D0
:1000D000EE0FFF1F0065C02BAC2BEA2B81708E2B1F
:1000E0008DB9DF91CF911F910F9108958FB9779BB3
:1000F000FECF0895CF93C62F98B39F7E98BB0E94E2
:1001000076008FEC97E00197F1F700C000008C2F8C
:100110000E94760088B3806188BBCF91089520E06B
:1001200040E060E081E00E9436006FEF89E00E94CD
:100130007A0069E08AE00E947A0063E08BE00E9426
:100140007A0061E08CE00E947A0061E081E00E9428
:100150007A0068E082E00E947A0069E083E00E9411
:100160007A0060E084E00E947A002FEF39E688E1AF
:10017000215030408040E1F700C0000002E617E067
:1001800002C000E010E09801369527953695279536
:1001900036952795A5ECB0E20E946101AC0152951D
:1001A00042954F7045275F7045279A01ADECBCEC36
:1001B0000E94610196958795969587959695879566
:1001C000BC01660F771F880F991F880F991F880F32
:1001D000991F860F971F281B390B622F81E00E9401
:1001E0007A0098013695279536952795ABE7B4E1C7
:1001F0000E946101AC01569547959A01ADECBCECAB
:100200000E94610196958795969587959695879515
:10021000BC01660F771F880F991F880F991F880FE1
:10022000991F860F971F281B390B622F82E00E94AF
:100230007A009801ADECBCEC0E946101EC01D6950E
:10024000C795D695C795D695C7959E010E94610121
:10025000969587959695879596958795BC01660F97
:10026000771F880F991F880F991F880F991F860F76
:10027000971F281B390B622F83E00E947A00CE0162
:10028000880F991FCC0FDD1FCC0FDD1FCC0FDD1F9A
:10029000C80FD91FB8016C1B7D0B84E00E947A0047
:1002A0003FEF80E792E0315080409040E1F700C09E
:1002B0000000003127E2120708F063CF0F5F1F4FE5
:1002C00062CFA29FB001B39FC001A39F700D811D9B
:1002D0001124911DB29F700D811D1124911D08954F
:0402E000F894FFCFC0
:00000001FF
